:1000000044C05EC05DC05CC05BC05AC059C058C02F
:1000100057C030C155C054C053C052C051C050C069
:100020004FC04EC04DC0000000003700340031000A
:1000300000000000380035003200000000003600EB
:100040003300300004040404040404040202020225
:100050000202030303030303020203010204081064
:1000600020408001020408102001020408102040F2
:1000700080400000000000000000000405070000B0
:100080000000000000000000000011241FBECFE5AA
:10009000D4E0DEBFCDBF11E0A0E6B0E0E4EFF4E0D5
:1000A00002C005900D92A830B107D9F721E0A8E071
:1000B000B1E001C01D92A331B207E1F725D118C20A
:1000C0009FCF853041F0873049F0843051F48FB5AF
:1000D0008F778FBD08958FB58F7DFBCF85B58F7DD1
:1000E00085BD0895CF93DF93282F30E0F901EE58B6
:1000F000FF4F8491F901E55AFF4FD491F901EC5B70
:10010000FF4FC491CC2399F08111DBDFEC2FF0E09D
:10011000EE0FFF1FE65CFF4FA591B491EC91ED232C
:1001200081E090E009F480E0DF91CF91089580E0D4
:1001300090E0FACF1F93CF93DF93282F30E0F9019F
:10014000EE58FF4F8491F901E55AFF4FD491F90120
:10015000EC5BFF4FC491CC23A1F0162F8111B1DFCE
:10016000EC2FF0E0EE0FFF1FE05DFF4FA591B49183
:100170008FB7F894EC91111108C0D095DE23DC9371
:100180008FBFDF91CF911F910895DE2BF8CFCF93D2
:10019000DF9390E0FC01E55AFF4F24918C5B9F4F69
:1001A000FC0184918823D1F090E0880F991FFC0115
:1001B000EA5DFF4FA591B491FC01E05DFF4FC59151
:1001C000D49161110EC09FB7F8948C91E22FE09505
:1001D0008E238C932881E223E8839FBFDF91CF9108
:1001E00008958FB7F894EC91E22BEC938FBFF6CF84
:1001F0003FB7F89480910D0190910E01A0910F01ED
:10020000B091100122B708B600FE05C02F3F19F0CB
:100210000196A11DB11D3FBFBA2FA92F982F882786
:10022000BC01CD01620F711D811D911D44E0660F5F
:10023000771F881F991F4A95D1F708950F931F9331
:10024000CF93DF939EE0899F80011124D0E0C0E02E
:10025000F801EC0FFD1FE05AFF4F60818C2F8E5F7D
:1002600069DF2196CE30D10599F7DF91CF911F91AB
:100270000F9108951F920F920FB60F9211242F9392
:100280003F938F939F93AF93BF9380910901909178
:100290000A01A0910B01B0910C01309108012CE0F2
:1002A000230F2D3768F12FE8230F0596A11DB11DEF
:1002B000209308018093090190930A01A0930B01F8
:1002C000B0930C0180910D0190910E01A0910F014E
:1002D000B09110010196A11DB11D80930D01909365
:1002E0000E01A0930F01B0931001BF91AF919F91A8
:1002F0008F913F912F910F900FBE0F901F901895E7
:100300000496A11DB11DD4CF789483B7836083BFB9
:1003100089B7816089BF82E08EBD8FB581608FBD56
:1003200085B5846085BD85B5806485BD85E886B961
:100330001AB861E082E02BDF61E083E028DF61E052
:1003400084E025DF61E085E022DF61E086E01FDFF9
:1003500061E087E01CDF61E088E019DF61E089E0AF
:1003600016DF61E08AE013DF61E08BE010DF60E020
:100370008EE00DDF60E08FE00ADF60E080E107DF04
:1003800060E081E104DF60E082E101DF60E083E1C1
:10039000FEDE60E08CE0FBDE60E08DE0F8DE61E038
:1003A0008EE0C8DE61E08FE0C5DE61E080E1C2DEA4
:1003B00061E081E1BFDE61E082E1BCDE61E083E11A
:1003C000B9DE61E08CE0B6DE61E08DE0B3DE92E0A4
:1003D000E92EF12C00E010E08EE084DEC0911101E6
:1003E000D0911201892B71F580E028DF01DF2B010C
:1003F0003C0182E3882E912CA12CB12CF9DE6419EA
:10040000750986099709683E734081059105B0F327
:1004100021E0821A9108A108B10888EE480E83E015
:10042000581E611C711C81149104A104B10431F7A0
:100430002196D0931201C09311010115110561F2AB
:10044000DFDDCACF8FE04EDE892B11F481E0CDCF06
:1004500080E148DE892B11F482E0C7CF81E142DEE2
:10046000892B11F483E0C1CF82E13CDE892B11F4AA
:1004700084E0BBCF83E136DE892B11F485E0B5CF74
:100480008CE030DE892B11F486E0AFCF8DE02ADEE0
:10049000892B29F4CE01B70104D0019779F38AE0C2
:1004A000A4CF97FB072E16F4009406D077FD08D052
:1004B0000BD007FC05D03EF4909581959F4F089591
:1004C000709561957F4F0895AA1BBB1B51E107C032
:1004D000AA1FBB1FA617B70710F0A61BB70B881FD4
:1004E000991F5A95A9F780959095BC01CD01089563
:0404F000F894FFCFAE
:1004F40001000001000001000001010101010100EF
:1005040000010101010101000101010100000100DC
:1005140000010001010101010101000000000101CD
:1005240000010101010101010100000101000001BC
:1005340001010101010100010000010000010101AC
:10054400010101010000010100000001000101019D
:10055400010100000001010101010101010101018A
:100564000000000000000001010101010101000080
:10057400000101000001010101010101010101016A
:10058400010101010101010101010000000000005D
:08059400010101010101010157
:00000001FF
